S01600004B4C30355F434331375F436F64652E73726563EB
S3151FFFFC00F80B0020110000209D0300209D030020FC
S3151FFFFC109D0300209D0300209D0300209D030020C0
S3151FFFFC209D0300209D0300209D0300209D030020B0
S3151FFFFC309D0300209D0300209D0300209D030020A0
S3151FFFFC409D0300209D0300209D0300209D03002090
S31520000000FFFFFFFFFFFFFFFFFFFFFFFFFEFBFFFFDF
S31520000010002000210022002300240025002600279E
S3152000002062B600F033F9FEE780B500F017F800223B
S315200000300021002000F0B0F800220021012000F06D
S31520000040ABF80A2000F09AF800220021002000F0E8
S31520000050A3F80A2000F092F8EEE7000072B669488D
S31520000060002101606848002101606848A021C90478
S315200000700160674800688021890001436448016067
S31520000080634800688021C9000143614801606148D6
S3152000009000688021090401435E4801605D480068CC
S315200000A08021890401435B4801605A480068802109
S315200000B00905014357480160574800688021C90057
S315200000C00143554801605548042101705448802158
S315200000D00170544800210160534840210160534873
S315200000E0002101605248002101605248022101602E
S315200000F05148002101605148514901605148012170
S315200001000160514800210160504828210160504873
S315200001105049016050485149016051480021016011
S3152000012050488021490001604F48802149000160E4
S315200001304E488021490001604D4880218900016098
S315200001404C488021890001604B488021890001604C
S315200001504A480068802149000143484801604748D1
S3152000016000688021890001434448016043480068B3
S315200001708021C900014341480160704700B5002134
S3152000018007E03F4A1268002AFBD03D4A012313604C
S31520000190491C8142F5DB00BD00B5012807D139484D
S315200001A0006880235B0003433648036006E0364838
S315200001B0006880235B00034333480360012907D18D
S315200001C0304800688021890001432E48016006E0FE
S315200001D02D4800688021890001432B480160012AAF
S315200001E007D1284800688021C900014325480160BD
S315200001F006E0254800688021C900014322480160A5
S3152000020000BD000000810440448004400480044076
S31520000210388004403C80044034800440004006403E
S31520000220014006400CB0034008B0034020B0034014
S3152000023024B0034000B00340007003401071034017
S315200002403333030018710340009003401490034099
S3152000025008900340E951000018900340F52800005B
S315200002602490044020A0044024A0044028A0044058
S3152000027014A0044004A0044008A0044054F00F40F9
S315200002801C71034048F00F4044F00F4080B52248CF
S315200002900021016000F018F820480068C021C9003C
S315200002A001431E4801601E480078000705D51C48FA
S315200002B00078082101431A4801701A488021490212
S315200002C00160FFF7B1FE01BD00B51749174A18486E
S315200002D0801A03E013780B70521C491C0300581E29
S315200002E0002BF7D113491448401A02E000220A7065
S315200002F0491C0200501E002AF8D11049104A114804
S31520000300801A03E013780B70521C491C0300581EF8
S31520000310002BF7D100BD0000008104403880044046
S3152000032002D0074044800440000000000000000086
S315200003300000000000000000000000001000002067
S31520000340100000201000002000F00BF8002801D03B
S31520000350C046C0460020C046C046FFF765FE00F0F6
S3152000036002F80120704780B500F002F801BD0000B8
S315200003700746384600F002F8FBE7000080B5C04685
S31520000380C046024A11001820ABBEFBE72600020039
S31520000390C046C046C046C046FFF7D6FF704700009D
S7052000039146
