S01B00004B4C30325F426C696E6B795F5245445F4C45442E73726563DA
S1130000F80B002011040000B7070000B707000038
S1130010B7070000B7070000B7070000B7070000E4
S1130020B7070000B7070000B7070000B7070000D4
S1130030B7070000B7070000B7070000B7070000C4
S1130040B7070000B7070000B7070000B7070000B4
S1130400FFFFFFFFFFFFFFFFFFFFFFFFFEFBFFFFFD
S113041000200021002200230024002500260027BC
S113042062B600F057F9FEE780B500F017F8002235
S11304300021002000F0CCF800220021012000F06F
S1130440C7F8642000F0B9F800220021002000F071
S1130450BFF8642000F0B1F8EEE7000072B60020A7
S113046075490860002075490860A020C0047449DB
S11304700860744800688021890001437148016064
S1130480704800688021C90001436E4801606E48CD
S113049000688021890401436B4801606A48006850
S11304A0802109050143684801606848006880218B
S11304B0C900014365480160644800684021014364
S11304C062480160614800688021090301435F4874
S11304D0016004205E49087080205E490870002095
S11304E05D4908605D485E49086000205D49086018
S11304F005205949086000205B49086040205B4999
S1130500086000205A49086000205A490860022007
S113051059490860112059490870594800788021C8
S11305200143574801700020564908602820564965
S113053008605648564908605648574908600020E4
S113054056490860802040005549086080204000DA
S1130550544908608020400053490860802080008E
S11305605249086080208000514908608020800042
S113057050490860802080004F4908608020800036
S11305804E49086000204E490860FF20001D4D4977
S113059008604D480068402101434B4801604A48C7
S11305A00068802101434848016047480068802171
S11305B0C900014344480160704700B5002104E0CC
S11305C0254A1268D203FBD5491C8142F8D300BDE9
S11305D000B5C0B2012806D13C480068402303435B
S11305E03A48036005E03A4800684023034338482A
S11305F00360C9B2012906D134480068802101434F
S11306003248016005E032480068802101433048E7
S11306100160D2B2012A07D12C4800688021C900A8
S113062001432A48016006E0294800688021C90086
S113063001432748016000BD008104404480044018
S113064004800440388004403C80044034800440EA
S1130650004006400140064010E000E0EC5100007C
S113066014E000E018E000E00CB0034008B00340E0
S113067020B0034024B0034000B0034001600640B2
S1130680026006400090034014900340E9510000CA
S113069008900340F528000018900340249004407B
S11306A018A004401CA0044028A0044014A0044046
S11306B004A0044008A004400CA0044010A004407E
S11306C0309004402890044054F00F4048F00F400C
S11306D044F00F4080B500202149086000F018F86C
S11306E020480068C021C90001431E4801601E481B
S11306F00078000705D51C480078082101431A48F2
S113070001708020400219490860FFF78DFE01BD89
S113071000B51749174A1848801A03E013780B707C
S1130720521C491C0300581E002BF7D113491448CE
S1130730401A02E000220A70491C0200501E002ADE
S1130740F8D11049104A1148801A03E013780B704D
S1130750521C491C0300581E002BF7D100BD000099
S1130760008104403880044002D0074044800440A3
S11307700000000000000000000000000000000075
S11307800000000010000020E4070000E40700005F
S113079000F00BF8002801D0C046C0460020C04637
S11307A0C046FFF741FE00F002F80120704780B513
S11307B000F002F801BD70470746384600F002F821
S11307C0FBE7000080B5C046C046024A110018206D
S11307D0ABBEFBE726000200C046C046C046C0468A
S10707E0FFF7D6FF46
S90307D91C
