S01600004B4C34335F4941525F424C414E4B2E737265630E
S11300000060002001070000530700005F070000A4
S113001000000000000000000000000000000000DC
S11300200000000000000000000000008107000044
S113003000000000000000008307000085070000A6
S11300408707000087070000870700008707000074
S11300508707000087070000870700008707000064
S11300608707000087070000870700008707000054
S11300708707000087070000870700008707000044
S11300808707000087070000870700008707000034
S11300908707000087070000870700008707000024
S11300A08707000087070000870700008707000014
S11300B08707000087070000870700008707000004
S1130400FFFFFFFFFFFFFFFFFFFFFFFFFE3DFFFFBB
S113041080B500F013F80021002000F0D4F800218A
S1130420012000F0D0F8642000F0C2F80021002080
S113043000F0C9F8642000F0BBF8F0E772B60020C1
S1130440734908607348006880218900014371483A
S11304500160704800688021C90001436D48016053
S11304606C4800688021090101436A4801606948B9
S113047000688021490101436648016065480068BD
S1130480802189010143634801606248006880213A
S1130490490301435F4801605F4800688021C90443
S11304A001435D4801605D480068802109040143FF
S11304B05A4801605948006880210905014357489A
S11304C001605748006880210903014354480160D2
S11304D052480068802109060143504801604F4892
S11304E000688021490401434C4801604A4800687F
S11304F0802149040143484801604A48007880212A
S11305000143484801700020474908704748006883
S11305104749014045480160444800688021490238
S1130520014342480160002042490860424843496F
S1130530086000204249086005203E490860802088
S1130540800040490860802080003F490860002006
S11305503E49086000203E49086000203D4908608B
S11305608020C0003C4908603C480068FF21091D08
S113057001433A4801603A480068FF21091D0143DC
S113058037480160802040003649086080204000E0
S1130590354908603548006880210906014333481D
S11305A001603348006820210143314801607047ED
S11305B000B5002104E01F4A1268D203FBD5491C90
S11305C08142F8D300BD00B5C0B2012807D1294843
S11305D000688022120602432648026006E026488C
S11305E0006880221206024323480260C9B201292E
S11305F006D122480068202101432048016005E01B
S11306001F480068202101431D48016000BD00000F
S11306100081044038800440048004403C8004404D
S113062034800440184006400040064044800440A2
S1130630FFFFFFEF10E000E080BB000014E000E0EB
S113064018E000E0049004400890044000A0044036
S113065074D0044078D0044008C004401090044092
S11306600CB004407CD0044014C0044014F10F408A
S1130670D4F00F4008F10F4004F10F40C8F00F40D0
S1130680C4F00F4000B51648164988420CD000202B
S113069008E01449042242438958114A042343437D
S11306A0D150401CFF28F4D90D480F4908600F4968
S11306B00F4A1048801A03E013780B70521C491C2F
S11306C00300581E002BF7D10B490C48401A02E0D6
S11306D000220A70491C0200501E002AF8D100BDF5
S11306E0000000000000000008ED00E00000000031
S11306F000000000000000000000000000000000F6
S113070072B605480549064A02600A6005488047F2
S113071062B605480047000080E100E080E200E0A6
S1130720FFFFFFFF850600007507000000F00BF8CF
S1130730002801D0C046C0460020C046C046FFF78E
S113074067FE00F002F80120704780B500F002F85F
S113075001BDFEE70746384600F002F8FBE7FEE776
S113076080B5C046C046024A11001820ABBEFBE764
S113077026000200C046C046C046C046FFF7D6FF6A
S10B0780FEE7FEE7FEE7FEE7D9
S903077580
